{
  "_format": "hh-sol-artifact-1",
  "contractName": "ConfidentialAIModel",
  "sourceName": "contracts/ConfidentialAIModel.sol",
  "abi": [
    {
      "inputs": [],
      "stateMutability": "nonpayable",
      "type": "constructor"
    },
    {
      "anonymous": false,
      "inputs": [
        {
          "indexed": true,
          "internalType": "uint256",
          "name": "modelId",
          "type": "uint256"
        },
        {
          "indexed": true,
          "internalType": "address",
          "name": "user",
          "type": "address"
        }
      ],
      "name": "ModelAccessGranted",
      "type": "event"
    },
    {
      "anonymous": false,
      "inputs": [
        {
          "indexed": true,
          "internalType": "uint256",
          "name": "modelId",
          "type": "uint256"
        },
        {
          "indexed": true,
          "internalType": "address",
          "name": "owner",
          "type": "address"
        },
        {
          "indexed": false,
          "internalType": "uint256",
          "name": "price",
          "type": "uint256"
        }
      ],
      "name": "ModelListed",
      "type": "event"
    },
    {
      "anonymous": false,
      "inputs": [
        {
          "indexed": true,
          "internalType": "uint256",
          "name": "modelId",
          "type": "uint256"
        },
        {
          "indexed": true,
          "internalType": "address",
          "name": "buyer",
          "type": "address"
        }
      ],
      "name": "ModelPurchased",
      "type": "event"
    },
    {
      "inputs": [
        {
          "internalType": "uint256",
          "name": "modelId",
          "type": "uint256"
        }
      ],
      "name": "deactivateModel",
      "outputs": [],
      "stateMutability": "nonpayable",
      "type": "function"
    },
    {
      "inputs": [
        {
          "internalType": "uint256",
          "name": "modelId",
          "type": "uint256"
        }
      ],
      "name": "getAccessKey",
      "outputs": [
        {
          "internalType": "bytes",
          "name": "",
          "type": "bytes"
        }
      ],
      "stateMutability": "view",
      "type": "function"
    },
    {
      "inputs": [
        {
          "internalType": "uint256",
          "name": "modelId",
          "type": "uint256"
        }
      ],
      "name": "getModel",
      "outputs": [
        {
          "components": [
            {
              "internalType": "address",
              "name": "owner",
              "type": "address"
            },
            {
              "internalType": "bytes32",
              "name": "modelHash",
              "type": "bytes32"
            },
            {
              "internalType": "bytes",
              "name": "encryptedMetadata",
              "type": "bytes"
            },
            {
              "internalType": "bytes32",
              "name": "accessKeyHash",
              "type": "bytes32"
            },
            {
              "internalType": "uint256",
              "name": "price",
              "type": "uint256"
            },
            {
              "internalType": "bool",
              "name": "isActive",
              "type": "bool"
            }
          ],
          "internalType": "struct ConfidentialAIModel.Model",
          "name": "",
          "type": "tuple"
        }
      ],
      "stateMutability": "view",
      "type": "function"
    },
    {
      "inputs": [
        {
          "internalType": "uint256",
          "name": "modelId",
          "type": "uint256"
        },
        {
          "internalType": "address",
          "name": "buyer",
          "type": "address"
        },
        {
          "internalType": "bytes",
          "name": "encryptedAccessKey",
          "type": "bytes"
        }
      ],
      "name": "grantAccess",
      "outputs": [],
      "stateMutability": "nonpayable",
      "type": "function"
    },
    {
      "inputs": [
        {
          "internalType": "bytes32",
          "name": "modelHash",
          "type": "bytes32"
        },
        {
          "internalType": "bytes",
          "name": "encryptedMetadata",
          "type": "bytes"
        },
        {
          "internalType": "bytes32",
          "name": "accessKeyHash",
          "type": "bytes32"
        },
        {
          "internalType": "uint256",
          "name": "price",
          "type": "uint256"
        }
      ],
      "name": "listModel",
      "outputs": [],
      "stateMutability": "nonpayable",
      "type": "function"
    },
    {
      "inputs": [
        {
          "internalType": "uint256",
          "name": "modelId",
          "type": "uint256"
        }
      ],
      "name": "purchaseModel",
      "outputs": [],
      "stateMutability": "payable",
      "type": "function"
    },
    {
      "inputs": [
        {
          "internalType": "uint256",
          "name": "modelId",
          "type": "uint256"
        },
        {
          "internalType": "uint256",
          "name": "newPrice",
          "type": "uint256"
        }
      ],
      "name": "updatePrice",
      "outputs": [],
      "stateMutability": "nonpayable",
      "type": "function"
    }
  ],
  "bytecode": "0x6080604052348015600f57600080fd5b506001600281905550611a10806100276000396000f3fe6080604052600436106100705760003560e01c806382367b2d1161004e57806382367b2d14610118578063afb83d0914610141578063b01deec91461016a578063dc7468621461019357610070565b80631e10f86b14610075578063518f04711461009e5780636d361694146100db575b600080fd5b34801561008157600080fd5b5061009c60048036038101906100979190610d78565b6101af565b005b3480156100aa57600080fd5b506100c560048036038101906100c09190610d78565b610283565b6040516100d29190610e35565b60405180910390f35b3480156100e757600080fd5b5061010260048036038101906100fd9190610d78565b610404565b60405161010f9190610fae565b60405180910390f35b34801561012457600080fd5b5061013f600480360381019061013a9190610fd0565b610551565b005b34801561014d57600080fd5b50610168600480360381019061016391906110a1565b610612565b005b34801561017657600080fd5b50610191600480360381019061018c9190611141565b610804565b005b6101ad60048036038101906101a89190610d78565b6109f5565b005b3373ffffffffffffffffffffffffffffffffffffffff1660008083815260200190815260200160002060000160009054906101000a900473ffffffffffffffffffffffffffffffffffffffff1673ffffffffffffffffffffffffffffffffffffffff1614610252576040517f08c379a000000000000000000000000000000000000000000000000000000000815260040161024990611226565b60405180910390fd5b600080600083815260200190815260200160002060050160006101000a81548160ff02191690831515021790555050565b606060006001600084815260200190815260200160002060003373ffffffffffffffffffffffffffffffffffffffff1673ffffffffffffffffffffffffffffffffffffffff16815260200190815260200160002080546102e290611275565b905011610324576040517f08c379a000000000000000000000000000000000000000000000000000000000815260040161031b906112f2565b60405180910390fd5b6001600083815260200190815260200160002060003373ffffffffffffffffffffffffffffffffffffffff1673ffffffffffffffffffffffffffffffffffffffff168152602001908152602001600020805461037f90611275565b80601f01602080910402602001604051908101604052809291908181526020018280546103ab90611275565b80156103f85780601f106103cd576101008083540402835291602001916103f8565b820191906000526020600020905b8154815290600101906020018083116103db57829003601f168201915b50505050509050919050565b61040c610ce4565b6000808381526020019081526020016000206040518060c00160405290816000820160009054906101000a900473ffffffffffffffffffffffffffffffffffffffff1673ffffffffffffffffffffffffffffffffffffffff1673ffffffffffffffffffffffffffffffffffffffff1681526020016001820154815260200160028201805461049990611275565b80601f01602080910402602001604051908101604052809291908181526020018280546104c590611275565b80156105125780601f106104e757610100808354040283529160200191610512565b820191906000526020600020905b8154815290600101906020018083116104f557829003601f168201915b5050505050815260200160038201548152602001600482015481526020016005820160009054906101000a900460ff1615151515815250509050919050565b3373ffffffffffffffffffffffffffffffffffffffff1660008084815260200190815260200160002060000160009054906101000a900473ffffffffffffffffffffffffffffffffffffffff1673ffffffffffffffffffffffffffffffffffffffff16146105f4576040517f08c379a00000000000000000000000000000000000000000000000000000000081526004016105eb90611226565b60405180910390fd5b80600080848152602001908152602001600020600401819055505050565b600080600086815260200190815260200160002090508060000160009054906101000a900473ffffffffffffffffffffffffffffffffffffffff1673ffffffffffffffffffffffffffffffffffffffff163373ffffffffffffffffffffffffffffffffffffffff16146106ba576040517f08c379a00000000000000000000000000000000000000000000000000000000081526004016106b190611226565b60405180910390fd5b60006001600087815260200190815260200160002060008673ffffffffffffffffffffffffffffffffffffffff1673ffffffffffffffffffffffffffffffffffffffff168152602001908152602001600020805461071790611275565b905014610759576040517f08c379a00000000000000000000000000000000000000000000000000000000081526004016107509061135e565b60405180910390fd5b82826001600088815260200190815260200160002060008773ffffffffffffffffffffffffffffffffffffffff1673ffffffffffffffffffffffffffffffffffffffff16815260200190815260200160002091826107b8929190611564565b508373ffffffffffffffffffffffffffffffffffffffff16857f419e67b1eb3e2f23fa895ded7fbfaece89cf886e0801ceb98799fe5c5ebb13e060405160405180910390a35050505050565b600061084660206040518060400160405280600d81526020017f6d6f64656c5f6c697374696e6700000000000000000000000000000000000000815250610bf5565b90506040518060c001604052803373ffffffffffffffffffffffffffffffffffffffff16815260200187815260200186868080601f016020809104026020016040519081016040528093929190818152602001838380828437600081840152601f19601f82011690508083019250505050505050815260200184815260200183815260200160011515815250600080600254815260200190815260200160002060008201518160000160006101000a81548173ffffffffffffffffffffffffffffffffffffffff021916908373ffffffffffffffffffffffffffffffffffffffff16021790555060208201518160010155604082015181600201908161094c9190611634565b50606082015181600301556080820151816004015560a08201518160050160006101000a81548160ff0219169083151502179055509050503373ffffffffffffffffffffffffffffffffffffffff166002547f9bd8ea027140589a00b923b981d55ddbfbb8a7c266dcbc6fd9e2eabdbe2ce0cb846040516109cd9190611715565b60405180910390a3600260008154809291906109e89061175f565b9190505550505050505050565b600080600083815260200190815260200160002090508060050160009054906101000a900460ff16610a5c576040517f08c379a0000000000000000000000000000000000000000000000000000000008152600401610a53906117f3565b60405180910390fd5b8060040154341015610aa3576040517f08c379a0000000000000000000000000000000000000000000000000000000008152600401610a9a9061185f565b60405180910390fd5b60006001600084815260200190815260200160002060003373ffffffffffffffffffffffffffffffffffffffff1673ffffffffffffffffffffffffffffffffffffffff1681526020019081526020016000208054610b0090611275565b905014610b42576040517f08c379a0000000000000000000000000000000000000000000000000000000008152600401610b39906118cb565b60405180910390fd5b8060000160009054906101000a900473ffffffffffffffffffffffffffffffffffffffff1673ffffffffffffffffffffffffffffffffffffffff166108fc349081150290604051600060405180830381858888f19350505050158015610bac573d6000803e3d6000fd5b503373ffffffffffffffffffffffffffffffffffffffff16827fc8581808129c51c0416692a5ea1b58e080ae8f21e384eefe2f2dc85d231d12ba60405160405180910390a35050565b606060008073010000000000000000000000000000000000000173ffffffffffffffffffffffffffffffffffffffff168585604051602001610c389291906118eb565b604051602081830303815290604052604051610c549190611957565b600060405180830381855afa9150503d8060008114610c8f576040519150601f19603f3d011682016040523d82523d6000602084013e610c94565b606091505b509150915081610cd9576040517f08c379a0000000000000000000000000000000000000000000000000000000008152600401610cd0906119ba565b60405180910390fd5b809250505092915050565b6040518060c00160405280600073ffffffffffffffffffffffffffffffffffffffff168152602001600080191681526020016060815260200160008019168152602001600081526020016000151581525090565b600080fd5b600080fd5b6000819050919050565b610d5581610d42565b8114610d6057600080fd5b50565b600081359050610d7281610d4c565b92915050565b600060208284031215610d8e57610d8d610d38565b5b6000610d9c84828501610d63565b91505092915050565b600081519050919050565b600082825260208201905092915050565b60005b83811015610ddf578082015181840152602081019050610dc4565b60008484015250505050565b6000601f19601f8301169050919050565b6000610e0782610da5565b610e118185610db0565b9350610e21818560208601610dc1565b610e2a81610deb565b840191505092915050565b60006020820190508181036000830152610e4f8184610dfc565b905092915050565b600073ffffffffffffffffffffffffffffffffffffffff82169050919050565b6000610e8282610e57565b9050919050565b610e9281610e77565b82525050565b6000819050919050565b610eab81610e98565b82525050565b600082825260208201905092915050565b6000610ecd82610da5565b610ed78185610eb1565b9350610ee7818560208601610dc1565b610ef081610deb565b840191505092915050565b610f0481610d42565b82525050565b60008115159050919050565b610f1f81610f0a565b82525050565b600060c083016000830151610f3d6000860182610e89565b506020830151610f506020860182610ea2565b5060408301518482036040860152610f688282610ec2565b9150506060830151610f7d6060860182610ea2565b506080830151610f906080860182610efb565b5060a0830151610fa360a0860182610f16565b508091505092915050565b60006020820190508181036000830152610fc88184610f25565b905092915050565b60008060408385031215610fe757610fe6610d38565b5b6000610ff585828601610d63565b925050602061100685828601610d63565b9150509250929050565b61101981610e77565b811461102457600080fd5b50565b60008135905061103681611010565b92915050565b600080fd5b600080fd5b600080fd5b60008083601f8401126110615761106061103c565b5b8235905067ffffffffffffffff81111561107e5761107d611041565b5b60208301915083600182028301111561109a57611099611046565b5b9250929050565b600080600080606085870312156110bb576110ba610d38565b5b60006110c987828801610d63565b94505060206110da87828801611027565b935050604085013567ffffffffffffffff8111156110fb576110fa610d3d565b5b6111078782880161104b565b925092505092959194509250565b61111e81610e98565b811461112957600080fd5b50565b60008135905061113b81611115565b92915050565b60008060008060006080868803121561115d5761115c610d38565b5b600061116b8882890161112c565b955050602086013567ffffffffffffffff81111561118c5761118b610d3d565b5b6111988882890161104b565b945094505060406111ab8882890161112c565b92505060606111bc88828901610d63565b9150509295509295909350565b600082825260208201905092915050565b7f4e6f74206d6f64656c206f776e65720000000000000000000000000000000000600082015250565b6000611210600f836111c9565b915061121b826111da565b602082019050919050565b6000602082019050818103600083015261123f81611203565b9050919050565b7f4e487b7100000000000000000000000000000000000000000000000000000000600052602260045260246000fd5b6000600282049050600182168061128d57607f821691505b6020821081036112a05761129f611246565b5b50919050565b7f4e6f206163636573730000000000000000000000000000000000000000000000600082015250565b60006112dc6009836111c9565b91506112e7826112a6565b602082019050919050565b6000602082019050818103600083015261130b816112cf565b9050919050565b7f41636365737320616c7265616479206772616e74656400000000000000000000600082015250565b60006113486016836111c9565b915061135382611312565b602082019050919050565b600060208201905081810360008301526113778161133b565b9050919050565b600082905092915050565b7f4e487b7100000000000000000000000000000000000000000000000000000000600052604160045260246000fd5b60008190508160005260206000209050919050565b60006020601f8301049050919050565b600082821b905092915050565b60006008830261141a7fffffffffffffffffffffffffffffffffffffffffffffffffffffffffffffffff826113dd565b61142486836113dd565b95508019841693508086168417925050509392505050565b6000819050919050565b600061146161145c61145784610d42565b61143c565b610d42565b9050919050565b6000819050919050565b61147b83611446565b61148f61148782611468565b8484546113ea565b825550505050565b600090565b6114a4611497565b6114af818484611472565b505050565b5b818110156114d3576114c860008261149c565b6001810190506114b5565b5050565b601f821115611518576114e9816113b8565b6114f2846113cd565b81016020851015611501578190505b61151561150d856113cd565b8301826114b4565b50505b505050565b600082821c905092915050565b600061153b6000198460080261151d565b1980831691505092915050565b6000611554838361152a565b9150826002028217905092915050565b61156e838361137e565b67ffffffffffffffff81111561158757611586611389565b5b6115918254611275565b61159c8282856114d7565b6000601f8311600181146115cb57600084156115b9578287013590505b6115c38582611548565b86555061162b565b601f1984166115d9866113b8565b60005b82811015611601578489013582556001820191506020850194506020810190506115dc565b8683101561161e578489013561161a601f89168261152a565b8355505b6001600288020188555050505b50505050505050565b61163d82610da5565b67ffffffffffffffff81111561165657611655611389565b5b6116608254611275565b61166b8282856114d7565b600060209050601f83116001811461169e576000841561168c578287015190505b6116968582611548565b8655506116fe565b601f1984166116ac866113b8565b60005b828110156116d4578489015182556001820191506020850194506020810190506116af565b868310156116f157848901516116ed601f89168261152a565b8355505b6001600288020188555050505b505050505050565b61170f81610d42565b82525050565b600060208201905061172a6000830184611706565b92915050565b7f4e487b7100000000000000000000000000000000000000000000000000000000600052601160045260246000fd5b600061176a82610d42565b91507fffffffffffffffffffffffffffffffffffffffffffffffffffffffffffffffff820361179c5761179b611730565b5b600182019050919050565b7f4d6f64656c206e6f7420617661696c61626c6500000000000000000000000000600082015250565b60006117dd6013836111c9565b91506117e8826117a7565b602082019050919050565b6000602082019050818103600083015261180c816117d0565b9050919050565b7f496e73756666696369656e74207061796d656e74000000000000000000000000600082015250565b60006118496014836111c9565b915061185482611813565b602082019050919050565b600060208201905081810360008301526118788161183c565b9050919050565b7f416c726561647920707572636861736564000000000000000000000000000000600082015250565b60006118b56011836111c9565b91506118c08261187f565b602082019050919050565b600060208201905081810360008301526118e4816118a8565b9050919050565b60006040820190506119006000830185611706565b81810360208301526119128184610dfc565b90509392505050565b600081905092915050565b600061193182610da5565b61193b818561191b565b935061194b818560208601610dc1565b80840191505092915050565b60006119638284611926565b915081905092915050565b7f72616e646f6d42797465733a206661696c656400000000000000000000000000600082015250565b60006119a46013836111c9565b91506119af8261196e565b602082019050919050565b600060208201905081810360008301526119d381611997565b905091905056fea2646970667358221220dc6e14d18dbfeaba78fff9494e0149237a5c01b7538e6929b991ac9c708947b964736f6c634300081b0033",
  "linkReferences": {},
  "deployedLinkReferences": {}
}