{
  "_format": "hh-sol-artifact-1",
  "contractName": "OceanComputeIntegration",
  "sourceName": "contracts/OceanProtocol.sol",
  "abi": [
    {
      "inputs": [
        {
          "internalType": "address",
          "name": "_oceanProvider",
          "type": "address"
        }
      ],
      "stateMutability": "nonpayable",
      "type": "constructor"
    },
    {
      "inputs": [],
      "name": "ReentrancyGuardReentrantCall",
      "type": "error"
    },
    {
      "anonymous": false,
      "inputs": [
        {
          "indexed": true,
          "internalType": "address",
          "name": "dataToken",
          "type": "address"
        },
        {
          "indexed": true,
          "internalType": "address",
          "name": "user",
          "type": "address"
        },
        {
          "indexed": false,
          "internalType": "uint256",
          "name": "amount",
          "type": "uint256"
        }
      ],
      "name": "ComputeAllowanceSet",
      "type": "event"
    },
    {
      "anonymous": false,
      "inputs": [
        {
          "indexed": true,
          "internalType": "bytes32",
          "name": "jobId",
          "type": "bytes32"
        },
        {
          "indexed": false,
          "internalType": "bytes32",
          "name": "resultHash",
          "type": "bytes32"
        }
      ],
      "name": "ComputeJobCompleted",
      "type": "event"
    },
    {
      "anonymous": false,
      "inputs": [
        {
          "indexed": true,
          "internalType": "bytes32",
          "name": "jobId",
          "type": "bytes32"
        },
        {
          "indexed": true,
          "internalType": "address",
          "name": "requester",
          "type": "address"
        },
        {
          "indexed": false,
          "internalType": "address",
          "name": "dataToken",
          "type": "address"
        }
      ],
      "name": "ComputeJobStarted",
      "type": "event"
    },
    {
      "inputs": [
        {
          "internalType": "address",
          "name": "",
          "type": "address"
        },
        {
          "internalType": "address",
          "name": "",
          "type": "address"
        }
      ],
      "name": "computeAllowance",
      "outputs": [
        {
          "internalType": "uint256",
          "name": "",
          "type": "uint256"
        }
      ],
      "stateMutability": "view",
      "type": "function"
    },
    {
      "inputs": [
        {
          "internalType": "bytes32",
          "name": "",
          "type": "bytes32"
        }
      ],
      "name": "computeJobs",
      "outputs": [
        {
          "internalType": "address",
          "name": "requester",
          "type": "address"
        },
        {
          "internalType": "address",
          "name": "dataToken",
          "type": "address"
        },
        {
          "internalType": "address",
          "name": "algorithmToken",
          "type": "address"
        },
        {
          "internalType": "bytes32",
          "name": "oceanJobId",
          "type": "bytes32"
        },
        {
          "internalType": "bytes",
          "name": "encryptedParams",
          "type": "bytes"
        },
        {
          "internalType": "bytes32",
          "name": "resultHash",
          "type": "bytes32"
        },
        {
          "internalType": "uint256",
          "name": "timestamp",
          "type": "uint256"
        },
        {
          "internalType": "enum OceanComputeIntegration.ComputeStatus",
          "name": "status",
          "type": "uint8"
        }
      ],
      "stateMutability": "view",
      "type": "function"
    },
    {
      "inputs": [
        {
          "internalType": "bytes32",
          "name": "jobId",
          "type": "bytes32"
        }
      ],
      "name": "getComputeResult",
      "outputs": [
        {
          "internalType": "bytes",
          "name": "result",
          "type": "bytes"
        },
        {
          "internalType": "enum OceanComputeIntegration.ComputeStatus",
          "name": "status",
          "type": "uint8"
        }
      ],
      "stateMutability": "view",
      "type": "function"
    },
    {
      "inputs": [],
      "name": "oceanProvider",
      "outputs": [
        {
          "internalType": "address",
          "name": "",
          "type": "address"
        }
      ],
      "stateMutability": "view",
      "type": "function"
    },
    {
      "inputs": [],
      "name": "owner",
      "outputs": [
        {
          "internalType": "address",
          "name": "",
          "type": "address"
        }
      ],
      "stateMutability": "view",
      "type": "function"
    },
    {
      "inputs": [
        {
          "internalType": "address",
          "name": "dataToken",
          "type": "address"
        },
        {
          "internalType": "address",
          "name": "user",
          "type": "address"
        },
        {
          "internalType": "uint256",
          "name": "amount",
          "type": "uint256"
        }
      ],
      "name": "setComputeAllowance",
      "outputs": [],
      "stateMutability": "nonpayable",
      "type": "function"
    },
    {
      "inputs": [
        {
          "internalType": "address",
          "name": "dataToken",
          "type": "address"
        },
        {
          "internalType": "address",
          "name": "algorithmToken",
          "type": "address"
        },
        {
          "internalType": "bytes",
          "name": "encryptedParams",
          "type": "bytes"
        }
      ],
      "name": "startCompute",
      "outputs": [
        {
          "internalType": "bytes32",
          "name": "",
          "type": "bytes32"
        }
      ],
      "stateMutability": "nonpayable",
      "type": "function"
    }
  ],
  "bytecode": "0x60c060405234801561001057600080fd5b50604051611c36380380611c368339818101604052810190610032919061010b565b60016000819055508073ffffffffffffffffffffffffffffffffffffffff1660808173ffffffffffffffffffffffffffffffffffffffff16815250503373ffffffffffffffffffffffffffffffffffffffff1660a08173ffffffffffffffffffffffffffffffffffffffff168152505050610138565b600080fd5b600073ffffffffffffffffffffffffffffffffffffffff82169050919050565b60006100d8826100ad565b9050919050565b6100e8816100cd565b81146100f357600080fd5b50565b600081519050610105816100df565b92915050565b600060208284031215610121576101206100a8565b5b600061012f848285016100f6565b91505092915050565b60805160a051611ac4610172600039600081816103060152610b2e01526000818161032a015281816104dd0152610a340152611ac46000f3fe608060405234801561001057600080fd5b506004361061007d5760003560e01c8063a468f5371161005b578063a468f53714610107578063b14d399114610125578063c3eaebbb14610155578063e75349ed146101865761007d565b8063494ff6ce146100825780636bef0706146100b25780638da5cb5b146100e9575b600080fd5b61009c60048036038101906100979190610e6a565b6101a2565b6040516100a99190610ec3565b60405180910390f35b6100cc60048036038101906100c79190610f14565b6101c7565b6040516100e0989796959493929190611066565b60405180910390f35b6100f1610304565b6040516100fe91906110eb565b60405180910390f35b61010f610328565b60405161011c91906110eb565b60405180910390f35b61013f600480360381019061013a919061116b565b61034c565b60405161014c91906111df565b60405180910390f35b61016f600480360381019061016a9190610f14565b61089a565b60405161017d9291906111fa565b60405180910390f35b6101a0600480360381019061019b9190611256565b610b2c565b005b6002602052816000526040600020602052806000526040600020600091509150505481565b60016020528060005260406000206000915090508060000160009054906101000a900473ffffffffffffffffffffffffffffffffffffffff16908060010160009054906101000a900473ffffffffffffffffffffffffffffffffffffffff16908060020160009054906101000a900473ffffffffffffffffffffffffffffffffffffffff1690806003015490806004018054610262906112d8565b80601f016020809104026020016040519081016040528092919081815260200182805461028e906112d8565b80156102db5780601f106102b0576101008083540402835291602001916102db565b820191906000526020600020905b8154815290600101906020018083116102be57829003601f168201915b5050505050908060050154908060060154908060070160009054906101000a900460ff16905088565b7f000000000000000000000000000000000000000000000000000000000000000081565b7f000000000000000000000000000000000000000000000000000000000000000081565b6000610356610ca5565b6000600260008773ffffffffffffffffffffffffffffffffffffffff1673ffffffffffffffffffffffffffffffffffffffff16815260200190815260200160002060003373ffffffffffffffffffffffffffffffffffffffff1673ffffffffffffffffffffffffffffffffffffffff1681526020019081526020016000205411610415576040517f08c379a000000000000000000000000000000000000000000000000000000000815260040161040c90611366565b60405180910390fd5b600061045760206040518060400160405280600b81526020017f636f6d707574655f6a6f62000000000000000000000000000000000000000000815250610ceb565b905060008133426040516020016104709392919061142b565b60405160208183030381529060405280519060200120905060006104d786868080601f016020809104026020016040519081016040528093929190818152602001838380828437600081840152601f19601f82011690508083019250505050505050610dda565b905060007f000000000000000000000000000000000000000000000000000000000000000073ffffffffffffffffffffffffffffffffffffffff16638df726748a8a856040518463ffffffff1660e01b815260040161053893929190611464565b6020604051808303816000875af1158015610557573d6000803e3d6000fd5b505050506040513d601f19601f8201168201806040525081019061057b91906114b7565b90506040518061010001604052803373ffffffffffffffffffffffffffffffffffffffff1681526020018a73ffffffffffffffffffffffffffffffffffffffff1681526020018973ffffffffffffffffffffffffffffffffffffffff16815260200182815260200188888080601f016020809104026020016040519081016040528093929190818152602001838380828437600081840152601f19601f8201169050808301925050505050505081526020016000801b8152602001428152602001600160038111156106505761064f610fef565b5b8152506001600085815260200190815260200160002060008201518160000160006101000a81548173ffffffffffffffffffffffffffffffffffffffff021916908373ffffffffffffffffffffffffffffffffffffffff16021790555060208201518160010160006101000a81548173ffffffffffffffffffffffffffffffffffffffff021916908373ffffffffffffffffffffffffffffffffffffffff16021790555060408201518160020160006101000a81548173ffffffffffffffffffffffffffffffffffffffff021916908373ffffffffffffffffffffffffffffffffffffffff16021790555060608201518160030155608082015181600401908161075a91906116bf565b5060a0820151816005015560c0820151816006015560e08201518160070160006101000a81548160ff0219169083600381111561079a57610799610fef565b5b0217905550905050600260008a73ffffffffffffffffffffffffffffffffffffffff1673ffffffffffffffffffffffffffffffffffffffff16815260200190815260200160002060003373ffffffffffffffffffffffffffffffffffffffff1673ffffffffffffffffffffffffffffffffffffffff168152602001908152602001600020600081548092919061082f906117c0565b91905055503373ffffffffffffffffffffffffffffffffffffffff16837f40ab8a52107c60598e2b8a34c24185d3db39b3720b878444f552d43ac963aae88b60405161087b91906110eb565b60405180910390a382945050505050610892610de4565b949350505050565b60606000806001600085815260200190815260200160002090503373ffffffffffffffffffffffffffffffffffffffff168160000160009054906101000a900473ffffffffffffffffffffffffffffffffffffffff1673ffffffffffffffffffffffffffffffffffffffff1614610946576040517f08c379a000000000000000000000000000000000000000000000000000000000815260040161093d90611835565b60405180910390fd5b6002600381111561095a57610959610fef565b5b8160070160009054906101000a900460ff16600381111561097e5761097d610fef565b5b03610a2f57806004018160070160009054906101000a900460ff168180546109a5906112d8565b80601f01602080910402602001604051908101604052809291908181526020018280546109d1906112d8565b8015610a1e5780601f106109f357610100808354040283529160200191610a1e565b820191906000526020600020905b815481529060010190602001808311610a0157829003601f168201915b505050505091509250925050610b27565b6000807f000000000000000000000000000000000000000000000000000000000000000073ffffffffffffffffffffffffffffffffffffffff1663c3eaebbb84600301546040518263ffffffff1660e01b8152600401610a8f91906111df565b600060405180830381865afa158015610aac573d6000803e3d6000fd5b505050506040513d6000823e3d601f19601f82011682018060405250810190610ad5919061197f565b915091508015610afc576000610aea83610dee565b90508060029550955050505050610b27565b8260070160009054906101000a900460ff166040518060200160405280600081525090945094505050505b915091565b7f000000000000000000000000000000000000000000000000000000000000000073ffffffffffffffffffffffffffffffffffffffff163373ffffffffffffffffffffffffffffffffffffffff1614610bba576040517f08c379a0000000000000000000000000000000000000000000000000000000008152600401610bb190611835565b60405180910390fd5b80600260008573ffffffffffffffffffffffffffffffffffffffff1673ffffffffffffffffffffffffffffffffffffffff16815260200190815260200160002060008473ffffffffffffffffffffffffffffffffffffffff1673ffffffffffffffffffffffffffffffffffffffff168152602001908152602001600020819055508173ffffffffffffffffffffffffffffffffffffffff168373ffffffffffffffffffffffffffffffffffffffff167f5fc6cc5b4fefe9c52487c3577d804260346b653e59505408e899dcec9a721a9b83604051610c989190610ec3565b60405180910390a3505050565b600260005403610ce1576040517f3ee5aeb500000000000000000000000000000000000000000000000000000000815260040160405180910390fd5b6002600081905550565b606060008073010000000000000000000000000000000000000173ffffffffffffffffffffffffffffffffffffffff168585604051602001610d2e9291906119db565b604051602081830303815290604052604051610d4a9190611a0b565b600060405180830381855afa9150503d8060008114610d85576040519150601f19603f3d011682016040523d82523d6000602084013e610d8a565b606091505b509150915081610dcf576040517f08c379a0000000000000000000000000000000000000000000000000000000008152600401610dc690611a6e565b60405180910390fd5b809250505092915050565b6060819050919050565b6001600081905550565b6060819050919050565b6000604051905090565b600080fd5b600080fd5b600073ffffffffffffffffffffffffffffffffffffffff82169050919050565b6000610e3782610e0c565b9050919050565b610e4781610e2c565b8114610e5257600080fd5b50565b600081359050610e6481610e3e565b92915050565b60008060408385031215610e8157610e80610e02565b5b6000610e8f85828601610e55565b9250506020610ea085828601610e55565b9150509250929050565b6000819050919050565b610ebd81610eaa565b82525050565b6000602082019050610ed86000830184610eb4565b92915050565b6000819050919050565b610ef181610ede565b8114610efc57600080fd5b50565b600081359050610f0e81610ee8565b92915050565b600060208284031215610f2a57610f29610e02565b5b6000610f3884828501610eff565b91505092915050565b610f4a81610e2c565b82525050565b610f5981610ede565b82525050565b600081519050919050565b600082825260208201905092915050565b60005b83811015610f99578082015181840152602081019050610f7e565b60008484015250505050565b6000601f19601f8301169050919050565b6000610fc182610f5f565b610fcb8185610f6a565b9350610fdb818560208601610f7b565b610fe481610fa5565b840191505092915050565b7f4e487b7100000000000000000000000000000000000000000000000000000000600052602160045260246000fd5b6004811061102f5761102e610fef565b5b50565b60008190506110408261101e565b919050565b600061105082611032565b9050919050565b61106081611045565b82525050565b60006101008201905061107c600083018b610f41565b611089602083018a610f41565b6110966040830189610f41565b6110a36060830188610f50565b81810360808301526110b58187610fb6565b90506110c460a0830186610f50565b6110d160c0830185610eb4565b6110de60e0830184611057565b9998505050505050505050565b60006020820190506111006000830184610f41565b92915050565b600080fd5b600080fd5b600080fd5b60008083601f84011261112b5761112a611106565b5b8235905067ffffffffffffffff8111156111485761114761110b565b5b60208301915083600182028301111561116457611163611110565b5b9250929050565b6000806000806060858703121561118557611184610e02565b5b600061119387828801610e55565b94505060206111a487828801610e55565b935050604085013567ffffffffffffffff8111156111c5576111c4610e07565b5b6111d187828801611115565b925092505092959194509250565b60006020820190506111f46000830184610f50565b92915050565b600060408201905081810360008301526112148185610fb6565b90506112236020830184611057565b9392505050565b61123381610eaa565b811461123e57600080fd5b50565b6000813590506112508161122a565b92915050565b60008060006060848603121561126f5761126e610e02565b5b600061127d86828701610e55565b935050602061128e86828701610e55565b925050604061129f86828701611241565b9150509250925092565b7f4e487b7100000000000000000000000000000000000000000000000000000000600052602260045260246000fd5b600060028204905060018216806112f057607f821691505b602082108103611303576113026112a9565b5b50919050565b600082825260208201905092915050565b7f4e6f20636f6d7075746520616c6c6f77616e6365000000000000000000000000600082015250565b6000611350601483611309565b915061135b8261131a565b602082019050919050565b6000602082019050818103600083015261137f81611343565b9050919050565b600081905092915050565b600061139c82610f5f565b6113a68185611386565b93506113b6818560208601610f7b565b80840191505092915050565b60008160601b9050919050565b60006113da826113c2565b9050919050565b60006113ec826113cf565b9050919050565b6114046113ff82610e2c565b6113e1565b82525050565b6000819050919050565b61142561142082610eaa565b61140a565b82525050565b60006114378286611391565b915061144382856113f3565b6014820191506114538284611414565b602082019150819050949350505050565b60006060820190506114796000830186610f41565b6114866020830185610f41565b81810360408301526114988184610fb6565b9050949350505050565b6000815190506114b181610ee8565b92915050565b6000602082840312156114cd576114cc610e02565b5b60006114db848285016114a2565b91505092915050565b7f4e487b7100000000000000000000000000000000000000000000000000000000600052604160045260246000fd5b60008190508160005260206000209050919050565b60006020601f8301049050919050565b600082821b905092915050565b6000600883026115757fffffffffffffffffffffffffffffffffffffffffffffffffffffffffffffffff82611538565b61157f8683611538565b95508019841693508086168417925050509392505050565b6000819050919050565b60006115bc6115b76115b284610eaa565b611597565b610eaa565b9050919050565b6000819050919050565b6115d6836115a1565b6115ea6115e2826115c3565b848454611545565b825550505050565b600090565b6115ff6115f2565b61160a8184846115cd565b505050565b5b8181101561162e576116236000826115f7565b600181019050611610565b5050565b601f8211156116735761164481611513565b61164d84611528565b8101602085101561165c578190505b61167061166885611528565b83018261160f565b50505b505050565b600082821c905092915050565b600061169660001984600802611678565b1980831691505092915050565b60006116af8383611685565b9150826002028217905092915050565b6116c882610f5f565b67ffffffffffffffff8111156116e1576116e06114e4565b5b6116eb82546112d8565b6116f6828285611632565b600060209050601f8311600181146117295760008415611717578287015190505b61172185826116a3565b865550611789565b601f19841661173786611513565b60005b8281101561175f5784890151825560018201915060208501945060208101905061173a565b8683101561177c5784890151611778601f891682611685565b8355505b6001600288020188555050505b505050505050565b7f4e487b7100000000000000000000000000000000000000000000000000000000600052601160045260246000fd5b60006117cb82610eaa565b9150600082036117de576117dd611791565b5b600182039050919050565b7f4e6f7420617574686f72697a6564000000000000000000000000000000000000600082015250565b600061181f600e83611309565b915061182a826117e9565b602082019050919050565b6000602082019050818103600083015261184e81611812565b9050919050565b600080fd5b61186382610fa5565b810181811067ffffffffffffffff82111715611882576118816114e4565b5b80604052505050565b6000611895610df8565b90506118a1828261185a565b919050565b600067ffffffffffffffff8211156118c1576118c06114e4565b5b6118ca82610fa5565b9050602081019050919050565b60006118ea6118e5846118a6565b61188b565b90508281526020810184848401111561190657611905611855565b5b611911848285610f7b565b509392505050565b600082601f83011261192e5761192d611106565b5b815161193e8482602086016118d7565b91505092915050565b60008115159050919050565b61195c81611947565b811461196757600080fd5b50565b60008151905061197981611953565b92915050565b6000806040838503121561199657611995610e02565b5b600083015167ffffffffffffffff8111156119b4576119b3610e07565b5b6119c085828601611919565b92505060206119d18582860161196a565b9150509250929050565b60006040820190506119f06000830185610eb4565b8181036020830152611a028184610fb6565b90509392505050565b6000611a178284611391565b915081905092915050565b7f72616e646f6d42797465733a206661696c656400000000000000000000000000600082015250565b6000611a58601383611309565b9150611a6382611a22565b602082019050919050565b60006020820190508181036000830152611a8781611a4b565b905091905056fea2646970667358221220a19807d6488a9a7f5529cddb37bb5169484ca5af0574dd19efa242121a6af70964736f6c634300081b0033",
  "linkReferences": {},
  "deployedLinkReferences": {}
}