{
  "_format": "hh-sol-artifact-1",
  "contractName": "ROFLIntegration",
  "sourceName": "contracts/ROFLIntegration.sol",
  "abi": [
    {
      "inputs": [],
      "stateMutability": "nonpayable",
      "type": "constructor"
    },
    {
      "anonymous": false,
      "inputs": [
        {
          "indexed": true,
          "internalType": "uint256",
          "name": "requestId",
          "type": "uint256"
        },
        {
          "indexed": false,
          "internalType": "bytes32",
          "name": "resultHash",
          "type": "bytes32"
        }
      ],
      "name": "ComputationCompleted",
      "type": "event"
    },
    {
      "anonymous": false,
      "inputs": [
        {
          "indexed": true,
          "internalType": "uint256",
          "name": "requestId",
          "type": "uint256"
        },
        {
          "indexed": true,
          "internalType": "uint256",
          "name": "modelId",
          "type": "uint256"
        },
        {
          "indexed": true,
          "internalType": "address",
          "name": "requester",
          "type": "address"
        }
      ],
      "name": "ComputationRequested",
      "type": "event"
    },
    {
      "anonymous": false,
      "inputs": [
        {
          "indexed": true,
          "internalType": "address",
          "name": "nodeAddress",
          "type": "address"
        },
        {
          "indexed": false,
          "internalType": "bytes",
          "name": "publicKey",
          "type": "bytes"
        }
      ],
      "name": "ComputeNodeRegistered",
      "type": "event"
    },
    {
      "anonymous": false,
      "inputs": [
        {
          "indexed": true,
          "internalType": "address",
          "name": "nodeAddress",
          "type": "address"
        },
        {
          "indexed": false,
          "internalType": "bool",
          "name": "isActive",
          "type": "bool"
        }
      ],
      "name": "ComputeNodeStatusUpdated",
      "type": "event"
    },
    {
      "inputs": [
        {
          "internalType": "uint256",
          "name": "requestId",
          "type": "uint256"
        }
      ],
      "name": "getComputationRequest",
      "outputs": [
        {
          "components": [
            {
              "internalType": "uint256",
              "name": "modelId",
              "type": "uint256"
            },
            {
              "internalType": "bytes",
              "name": "encryptedInput",
              "type": "bytes"
            },
            {
              "internalType": "bytes",
              "name": "encryptedConfig",
              "type": "bytes"
            },
            {
              "internalType": "address",
              "name": "requester",
              "type": "address"
            },
            {
              "internalType": "uint256",
              "name": "timestamp",
              "type": "uint256"
            },
            {
              "internalType": "bytes32",
              "name": "resultHash",
              "type": "bytes32"
            },
            {
              "internalType": "enum ROFLIntegration.ComputationStatus",
              "name": "status",
              "type": "uint8"
            }
          ],
          "internalType": "struct ROFLIntegration.ComputationRequest",
          "name": "",
          "type": "tuple"
        }
      ],
      "stateMutability": "view",
      "type": "function"
    },
    {
      "inputs": [
        {
          "internalType": "address",
          "name": "nodeAddress",
          "type": "address"
        }
      ],
      "name": "getComputeNode",
      "outputs": [
        {
          "components": [
            {
              "internalType": "address",
              "name": "nodeAddress",
              "type": "address"
            },
            {
              "internalType": "bytes",
              "name": "publicKey",
              "type": "bytes"
            },
            {
              "internalType": "bool",
              "name": "isActive",
              "type": "bool"
            },
            {
              "internalType": "uint256",
              "name": "totalComputations",
              "type": "uint256"
            },
            {
              "internalType": "uint256",
              "name": "reputation",
              "type": "uint256"
            }
          ],
          "internalType": "struct ROFLIntegration.ComputeNode",
          "name": "",
          "type": "tuple"
        }
      ],
      "stateMutability": "view",
      "type": "function"
    },
    {
      "inputs": [
        {
          "internalType": "uint256",
          "name": "modelId",
          "type": "uint256"
        },
        {
          "internalType": "address",
          "name": "user",
          "type": "address"
        }
      ],
      "name": "grantComputePermission",
      "outputs": [],
      "stateMutability": "nonpayable",
      "type": "function"
    },
    {
      "inputs": [
        {
          "internalType": "bytes",
          "name": "publicKey",
          "type": "bytes"
        }
      ],
      "name": "registerComputeNode",
      "outputs": [],
      "stateMutability": "nonpayable",
      "type": "function"
    },
    {
      "inputs": [
        {
          "internalType": "uint256",
          "name": "modelId",
          "type": "uint256"
        },
        {
          "internalType": "bytes",
          "name": "encryptedInput",
          "type": "bytes"
        },
        {
          "internalType": "bytes",
          "name": "encryptedConfig",
          "type": "bytes"
        }
      ],
      "name": "requestComputation",
      "outputs": [
        {
          "internalType": "uint256",
          "name": "",
          "type": "uint256"
        }
      ],
      "stateMutability": "nonpayable",
      "type": "function"
    },
    {
      "inputs": [
        {
          "internalType": "uint256",
          "name": "requestId",
          "type": "uint256"
        },
        {
          "internalType": "bytes32",
          "name": "resultHash",
          "type": "bytes32"
        },
        {
          "internalType": "bytes",
          "name": "proof",
          "type": "bytes"
        }
      ],
      "name": "submitComputationResult",
      "outputs": [],
      "stateMutability": "nonpayable",
      "type": "function"
    },
    {
      "inputs": [
        {
          "internalType": "address",
          "name": "nodeAddress",
          "type": "address"
        },
        {
          "internalType": "uint256",
          "name": "performanceScore",
          "type": "uint256"
        }
      ],
      "name": "updateNodeReputation",
      "outputs": [],
      "stateMutability": "nonpayable",
      "type": "function"
    },
    {
      "inputs": [
        {
          "internalType": "address",
          "name": "nodeAddress",
          "type": "address"
        },
        {
          "internalType": "bool",
          "name": "isActive",
          "type": "bool"
        }
      ],
      "name": "updateNodeStatus",
      "outputs": [],
      "stateMutability": "nonpayable",
      "type": "function"
    }
  ],
  "bytecode": "0x60a0604052348015600f57600080fd5b503373ffffffffffffffffffffffffffffffffffffffff1660808173ffffffffffffffffffffffffffffffffffffffff16815250506001600381905550608051612581610075600039600081816101aa015281816108f90152610b0401526125816000f3fe608060405234801561001057600080fd5b50600436106100875760003560e01c80635b9fabe81161005b5780635b9fabe8146101245780639535a234146101405780639cca2f411461015c578063eaef9e461461018c57610087565b80620ef95d1461008c5780631356a084146100a857806329c35813146100c4578063405aec1c146100f4575b600080fd5b6100a660048036038101906100a19190611245565b6101a8565b005b6100c260048036038101906100bd9190611320565b61034f565b005b6100de60048036038101906100d99190611394565b610588565b6040516100eb9190611500565b60405180910390f35b61010e60048036038101906101099190611522565b6106f8565b60405161011b9190611678565b60405180910390f35b61013e600480360381019061013991906116c6565b6108f7565b005b61015a60048036038101906101559190611706565b610b02565b005b61017660048036038101906101719190611746565b610bfd565b60405161018391906117ea565b60405180910390f35b6101a660048036038101906101a19190611805565b610e03565b005b7f000000000000000000000000000000000000000000000000000000000000000073ffffffffffffffffffffffffffffffffffffffff163373ffffffffffffffffffffffffffffffffffffffff1614610236576040517f08c379a000000000000000000000000000000000000000000000000000000000815260040161022d906118d5565b60405180910390fd5b606481111561027a576040517f08c379a000000000000000000000000000000000000000000000000000000000815260040161027190611967565b60405180910390fd5b6000600160008473ffffffffffffffffffffffffffffffffffffffff1673ffffffffffffffffffffffffffffffffffffffff16815260200190815260200160002090508060020160009054906101000a900460ff1661030e576040517f08c379a0000000000000000000000000000000000000000000000000000000008152600401610305906119d3565b60405180910390fd5b600a60038361031d9190611a22565b6007836004015461032e9190611a22565b6103389190611a64565b6103429190611ac7565b8160040181905550505050565b600160003373ffffffffffffffffffffffffffffffffffffffff1673ffffffffffffffffffffffffffffffffffffffff16815260200190815260200160002060020160009054906101000a900460ff166103de576040517f08c379a00000000000000000000000000000000000000000000000000000000081526004016103d590611b6a565b60405180910390fd5b60008060008681526020019081526020016000209050600160038111156104085761040761155e565b5b8160060160009054906101000a900460ff16600381111561042c5761042b61155e565b5b1461046c576040517f08c379a000000000000000000000000000000000000000000000000000000000815260040161046390611bfc565b60405180910390fd5b6104768383610ff9565b6104b5576040517f08c379a00000000000000000000000000000000000000000000000000000000081526004016104ac90611c8e565b60405180910390fd5b83816005018190555060028160060160006101000a81548160ff021916908360038111156104e6576104e561155e565b5b02179055506000600160003373ffffffffffffffffffffffffffffffffffffffff1673ffffffffffffffffffffffffffffffffffffffff168152602001908152602001600020905080600301600081548092919061054390611cae565b9190505550857fb7f1d81dd1c908f2dfc85316e1def6bf9465f727e5f4b3a738d4e0fed75b381d866040516105789190611d05565b60405180910390a2505050505050565b6105906110f8565b600160008373ffffffffffffffffffffffffffffffffffffffff1673ffffffffffffffffffffffffffffffffffffffff1681526020019081526020016000206040518060a00160405290816000820160009054906101000a900473ffffffffffffffffffffffffffffffffffffffff1673ffffffffffffffffffffffffffffffffffffffff1673ffffffffffffffffffffffffffffffffffffffff16815260200160018201805461064090611d4f565b80601f016020809104026020016040519081016040528092919081815260200182805461066c90611d4f565b80156106b95780601f1061068e576101008083540402835291602001916106b9565b820191906000526020600020905b81548152906001019060200180831161069c57829003601f168201915b505050505081526020016002820160009054906101000a900460ff16151515158152602001600382015481526020016004820154815250509050919050565b61070061113f565b6000808381526020019081526020016000206040518060e00160405290816000820154815260200160018201805461073790611d4f565b80601f016020809104026020016040519081016040528092919081815260200182805461076390611d4f565b80156107b05780601f10610785576101008083540402835291602001916107b0565b820191906000526020600020905b81548152906001019060200180831161079357829003601f168201915b505050505081526020016002820180546107c990611d4f565b80601f01602080910402602001604051908101604052809291908181526020018280546107f590611d4f565b80156108425780601f1061081757610100808354040283529160200191610842565b820191906000526020600020905b81548152906001019060200180831161082557829003601f168201915b505050505081526020016003820160009054906101000a900473ffffffffffffffffffffffffffffffffffffffff1673ffffffffffffffffffffffffffffffffffffffff1673ffffffffffffffffffffffffffffffffffffffff16815260200160048201548152602001600582015481526020016006820160009054906101000a900460ff1660038111156108da576108d961155e565b5b60038111156108ec576108eb61155e565b5b815250509050919050565b7f000000000000000000000000000000000000000000000000000000000000000073ffffffffffffffffffffffffffffffffffffffff163373ffffffffffffffffffffffffffffffffffffffff1614610985576040517f08c379a000000000000000000000000000000000000000000000000000000000815260040161097c906118d5565b60405180910390fd5b600073ffffffffffffffffffffffffffffffffffffffff16600160008473ffffffffffffffffffffffffffffffffffffffff1673ffffffffffffffffffffffffffffffffffffffff16815260200190815260200160002060000160009054906101000a900473ffffffffffffffffffffffffffffffffffffffff1673ffffffffffffffffffffffffffffffffffffffff1603610a56576040517f08c379a0000000000000000000000000000000000000000000000000000000008152600401610a4d90611df2565b60405180910390fd5b80600160008473ffffffffffffffffffffffffffffffffffffffff1673ffffffffffffffffffffffffffffffffffffffff16815260200190815260200160002060020160006101000a81548160ff0219169083151502179055508173ffffffffffffffffffffffffffffffffffffffff167ff2a892fb54a9c623519269cc5baa9690d47b406901ca2998e1a7cdcd17b46ef182604051610af69190611e21565b60405180910390a25050565b7f000000000000000000000000000000000000000000000000000000000000000073ffffffffffffffffffffffffffffffffffffffff163373ffffffffffffffffffffffffffffffffffffffff1614610b90576040517f08c379a0000000000000000000000000000000000000000000000000000000008152600401610b8790611e88565b60405180910390fd5b60016002600084815260200190815260200160002060008373ffffffffffffffffffffffffffffffffffffffff1673ffffffffffffffffffffffffffffffffffffffff16815260200190815260200160002060006101000a81548160ff0219169083151502179055505050565b60006002600087815260200190815260200160002060003373ffffffffffffffffffffffffffffffffffffffff1673ffffffffffffffffffffffffffffffffffffffff16815260200190815260200160002060009054906101000a900460ff16610c9c576040517f08c379a0000000000000000000000000000000000000000000000000000000008152600401610c9390611f1a565b60405180910390fd5b6000610cca6020600354604051602001610cb69190611fb2565b604051602081830303815290604052611009565b90506000806000600354815260200190815260200160002090508781600001819055508686826001019182610d009291906121be565b508484826002019182610d149291906121be565b50338160030160006101000a81548173ffffffffffffffffffffffffffffffffffffffff021916908373ffffffffffffffffffffffffffffffffffffffff16021790555042816004018190555060008160060160006101000a81548160ff02191690836003811115610d8957610d8861155e565b5b02179055503373ffffffffffffffffffffffffffffffffffffffff16886003547f68bab84245edc6c3bc886cbbe391cda907b4fe28f221b52eb77eed3a383cf85b60405160405180910390a46000600354905060036000815480929190610def90611cae565b919050555080935050505095945050505050565b600160003373ffffffffffffffffffffffffffffffffffffffff1673ffffffffffffffffffffffffffffffffffffffff16815260200190815260200160002060020160009054906101000a900460ff1615610e93576040517f08c379a0000000000000000000000000000000000000000000000000000000008152600401610e8a90612300565b60405180910390fd5b60208282905014610ed9576040517f08c379a0000000000000000000000000000000000000000000000000000000008152600401610ed090612392565b60405180910390fd5b6000600160003373ffffffffffffffffffffffffffffffffffffffff1673ffffffffffffffffffffffffffffffffffffffff1681526020019081526020016000209050338160000160006101000a81548173ffffffffffffffffffffffffffffffffffffffff021916908373ffffffffffffffffffffffffffffffffffffffff1602179055508282826001019182610f729291906121be565b5060018160020160006101000a81548160ff02191690831515021790555060008160030181905550606481600401819055503373ffffffffffffffffffffffffffffffffffffffff167ff0a97df8fed61f2bbbb227a3b4f852ce0b098ec865bda94a5704ad199170d9478484604051610fec9291906123ff565b60405180910390a2505050565b6000808383905011905092915050565b606060008073010000000000000000000000000000000000000173ffffffffffffffffffffffffffffffffffffffff16858560405160200161104c92919061245c565b60405160208183030381529060405260405161106891906124c8565b600060405180830381855afa9150503d80600081146110a3576040519150601f19603f3d011682016040523d82523d6000602084013e6110a8565b606091505b5091509150816110ed576040517f08c379a00000000000000000000000000000000000000000000000000000000081526004016110e49061252b565b60405180910390fd5b809250505092915050565b6040518060a00160405280600073ffffffffffffffffffffffffffffffffffffffff1681526020016060815260200160001515815260200160008152602001600081525090565b6040518060e00160405280600081526020016060815260200160608152602001600073ffffffffffffffffffffffffffffffffffffffff1681526020016000815260200160008019168152602001600060038111156111a1576111a061155e565b5b81525090565b600080fd5b600080fd5b600073ffffffffffffffffffffffffffffffffffffffff82169050919050565b60006111dc826111b1565b9050919050565b6111ec816111d1565b81146111f757600080fd5b50565b600081359050611209816111e3565b92915050565b6000819050919050565b6112228161120f565b811461122d57600080fd5b50565b60008135905061123f81611219565b92915050565b6000806040838503121561125c5761125b6111a7565b5b600061126a858286016111fa565b925050602061127b85828601611230565b9150509250929050565b6000819050919050565b61129881611285565b81146112a357600080fd5b50565b6000813590506112b58161128f565b92915050565b600080fd5b600080fd5b600080fd5b60008083601f8401126112e0576112df6112bb565b5b8235905067ffffffffffffffff8111156112fd576112fc6112c0565b5b602083019150836001820283011115611319576113186112c5565b5b9250929050565b6000806000806060858703121561133a576113396111a7565b5b600061134887828801611230565b9450506020611359878288016112a6565b935050604085013567ffffffffffffffff81111561137a576113796111ac565b5b611386878288016112ca565b925092505092959194509250565b6000602082840312156113aa576113a96111a7565b5b60006113b8848285016111fa565b91505092915050565b6113ca816111d1565b82525050565b600081519050919050565b600082825260208201905092915050565b60005b8381101561140a5780820151818401526020810190506113ef565b60008484015250505050565b6000601f19601f8301169050919050565b6000611432826113d0565b61143c81856113db565b935061144c8185602086016113ec565b61145581611416565b840191505092915050565b60008115159050919050565b61147581611460565b82525050565b6114848161120f565b82525050565b600060a0830160008301516114a260008601826113c1565b50602083015184820360208601526114ba8282611427565b91505060408301516114cf604086018261146c565b5060608301516114e2606086018261147b565b5060808301516114f5608086018261147b565b508091505092915050565b6000602082019050818103600083015261151a818461148a565b905092915050565b600060208284031215611538576115376111a7565b5b600061154684828501611230565b91505092915050565b61155881611285565b82525050565b7f4e487b7100000000000000000000000000000000000000000000000000000000600052602160045260246000fd5b6004811061159e5761159d61155e565b5b50565b60008190506115af8261158d565b919050565b60006115bf826115a1565b9050919050565b6115cf816115b4565b82525050565b600060e0830160008301516115ed600086018261147b565b50602083015184820360208601526116058282611427565b9150506040830151848203604086015261161f8282611427565b915050606083015161163460608601826113c1565b506080830151611647608086018261147b565b5060a083015161165a60a086018261154f565b5060c083015161166d60c08601826115c6565b508091505092915050565b6000602082019050818103600083015261169281846115d5565b905092915050565b6116a381611460565b81146116ae57600080fd5b50565b6000813590506116c08161169a565b92915050565b600080604083850312156116dd576116dc6111a7565b5b60006116eb858286016111fa565b92505060206116fc858286016116b1565b9150509250929050565b6000806040838503121561171d5761171c6111a7565b5b600061172b85828601611230565b925050602061173c858286016111fa565b9150509250929050565b600080600080600060608688031215611762576117616111a7565b5b600061177088828901611230565b955050602086013567ffffffffffffffff811115611791576117906111ac565b5b61179d888289016112ca565b9450945050604086013567ffffffffffffffff8111156117c0576117bf6111ac565b5b6117cc888289016112ca565b92509250509295509295909350565b6117e48161120f565b82525050565b60006020820190506117ff60008301846117db565b92915050565b6000806020838503121561181c5761181b6111a7565b5b600083013567ffffffffffffffff81111561183a576118396111ac565b5b611846858286016112ca565b92509250509250929050565b600082825260208201905092915050565b7f524f464c496e746567726174696f6e3a2063616c6c6572206973206e6f74206f60008201527f776e657200000000000000000000000000000000000000000000000000000000602082015250565b60006118bf602483611852565b91506118ca82611863565b604082019050919050565b600060208201905081810360008301526118ee816118b2565b9050919050565b7f524f464c496e746567726174696f6e3a20696e76616c696420706572666f726d60008201527f616e63652073636f726500000000000000000000000000000000000000000000602082015250565b6000611951602a83611852565b915061195c826118f5565b604082019050919050565b6000602082019050818103600083015261198081611944565b9050919050565b7f524f464c496e746567726174696f6e3a206e6f6465206e6f7420616374697665600082015250565b60006119bd602083611852565b91506119c882611987565b602082019050919050565b600060208201905081810360008301526119ec816119b0565b9050919050565b7f4e487b7100000000000000000000000000000000000000000000000000000000600052601160045260246000fd5b6000611a2d8261120f565b9150611a388361120f565b9250828202611a468161120f565b91508282048414831517611a5d57611a5c6119f3565b5b5092915050565b6000611a6f8261120f565b9150611a7a8361120f565b9250828201905080821115611a9257611a916119f3565b5b92915050565b7f4e487b7100000000000000000000000000000000000000000000000000000000600052601260045260246000fd5b6000611ad28261120f565b9150611add8361120f565b925082611aed57611aec611a98565b5b828204905092915050565b7f524f464c496e746567726174696f6e3a206e6f7420616e20616374697665206360008201527f6f6d70757465206e6f6465000000000000000000000000000000000000000000602082015250565b6000611b54602b83611852565b9150611b5f82611af8565b604082019050919050565b60006020820190508181036000830152611b8381611b47565b9050919050565b7f524f464c496e746567726174696f6e3a20696e76616c6964207265717565737460008201527f2073746174757300000000000000000000000000000000000000000000000000602082015250565b6000611be6602783611852565b9150611bf182611b8a565b604082019050919050565b60006020820190508181036000830152611c1581611bd9565b9050919050565b7f524f464c496e746567726174696f6e3a20696e76616c6964205445452070726f60008201527f6f66000000000000000000000000000000000000000000000000000000000000602082015250565b6000611c78602283611852565b9150611c8382611c1c565b604082019050919050565b60006020820190508181036000830152611ca781611c6b565b9050919050565b6000611cb98261120f565b91507fffffffffffffffffffffffffffffffffffffffffffffffffffffffffffffffff8203611ceb57611cea6119f3565b5b600182019050919050565b611cff81611285565b82525050565b6000602082019050611d1a6000830184611cf6565b92915050565b7f4e487b7100000000000000000000000000000000000000000000000000000000600052602260045260246000fd5b60006002820490506001821680611d6757607f821691505b602082108103611d7a57611d79611d20565b5b50919050565b7f524f464c496e746567726174696f6e3a206e6f6465206e6f742072656769737460008201527f6572656400000000000000000000000000000000000000000000000000000000602082015250565b6000611ddc602483611852565b9150611de782611d80565b604082019050919050565b60006020820190508181036000830152611e0b81611dcf565b9050919050565b611e1b81611460565b82525050565b6000602082019050611e366000830184611e12565b92915050565b7f524f464c496e746567726174696f6e3a206e6f7420617574686f72697a656400600082015250565b6000611e72601f83611852565b9150611e7d82611e3c565b602082019050919050565b60006020820190508181036000830152611ea181611e65565b9050919050565b7f524f464c496e746567726174696f6e3a206e6f20636f6d7075746174696f6e2060008201527f7065726d697373696f6e00000000000000000000000000000000000000000000602082015250565b6000611f04602a83611852565b9150611f0f82611ea8565b604082019050919050565b60006020820190508181036000830152611f3381611ef7565b9050919050565b600081905092915050565b7f636f6d707574655f726571756573740000000000000000000000000000000000600082015250565b6000611f7b600f83611f3a565b9150611f8682611f45565b600f82019050919050565b6000819050919050565b611fac611fa78261120f565b611f91565b82525050565b6000611fbd82611f6e565b9150611fc98284611f9b565b60208201915081905092915050565b600082905092915050565b7f4e487b7100000000000000000000000000000000000000000000000000000000600052604160045260246000fd5b60008190508160005260206000209050919050565b60006020601f8301049050919050565b600082821b905092915050565b6000600883026120747fffffffffffffffffffffffffffffffffffffffffffffffffffffffffffffffff82612037565b61207e8683612037565b95508019841693508086168417925050509392505050565b6000819050919050565b60006120bb6120b66120b18461120f565b612096565b61120f565b9050919050565b6000819050919050565b6120d5836120a0565b6120e96120e1826120c2565b848454612044565b825550505050565b600090565b6120fe6120f1565b6121098184846120cc565b505050565b5b8181101561212d576121226000826120f6565b60018101905061210f565b5050565b601f8211156121725761214381612012565b61214c84612027565b8101602085101561215b578190505b61216f61216785612027565b83018261210e565b50505b505050565b600082821c905092915050565b600061219560001984600802612177565b1980831691505092915050565b60006121ae8383612184565b9150826002028217905092915050565b6121c88383611fd8565b67ffffffffffffffff8111156121e1576121e0611fe3565b5b6121eb8254611d4f565b6121f6828285612131565b6000601f8311600181146122255760008415612213578287013590505b61221d85826121a2565b865550612285565b601f19841661223386612012565b60005b8281101561225b57848901358255600182019150602085019450602081019050612236565b868310156122785784890135612274601f891682612184565b8355505b6001600288020188555050505b50505050505050565b7f524f464c496e746567726174696f6e3a206e6f646520616c726561647920726560008201527f6769737465726564000000000000000000000000000000000000000000000000602082015250565b60006122ea602883611852565b91506122f58261228e565b604082019050919050565b60006020820190508181036000830152612319816122dd565b9050919050565b7f524f464c496e746567726174696f6e3a20696e76616c6964207075626c69632060008201527f6b6579206c656e67746800000000000000000000000000000000000000000000602082015250565b600061237c602a83611852565b915061238782612320565b604082019050919050565b600060208201905081810360008301526123ab8161236f565b9050919050565b600082825260208201905092915050565b82818337600083830152505050565b60006123de83856123b2565b93506123eb8385846123c3565b6123f483611416565b840190509392505050565b6000602082019050818103600083015261241a8184866123d2565b90509392505050565b600061242e826113d0565b61243881856123b2565b93506124488185602086016113ec565b61245181611416565b840191505092915050565b600060408201905061247160008301856117db565b81810360208301526124838184612423565b90509392505050565b600081905092915050565b60006124a2826113d0565b6124ac818561248c565b93506124bc8185602086016113ec565b80840191505092915050565b60006124d48284612497565b915081905092915050565b7f72616e646f6d42797465733a206661696c656400000000000000000000000000600082015250565b6000612515601383611852565b9150612520826124df565b602082019050919050565b6000602082019050818103600083015261254481612508565b905091905056fea26469706673582212204635890427f2a629b3738e7fb081b530fa5a5d97c751e9df77628dbd4f811ab064736f6c634300081b0033",
  "linkReferences": {},
  "deployedLinkReferences": {}
}